:100000000C9434000C943E000C943E000C943E0082
:100010000C943E000C943E000C943E000C943E0068
:100020000C943E000C943E000C943E000C943E0058
:100030000C943E000C943E000C943E000C943E0048
:100040000C943E000C943E000C943E000C943E0038
:100050000C943E000C943E000C943E000C943E0028
:100060000C943E000C943E0011241FBECFEFD8E04C
:10007000DEBFCDBF0E9440000C946C000C940000C9
:1000800084B18C6384B92A9A5F9A90E224E03FEFAE
:1000900049E688E1315040408040E1F700C000006F
:1000A0004F9B08C085B1803211F425B9F0CF85B1DE
:1000B000880F07C085B1843011F495B9E8CF85B1B8
:1000C000869585B93FEF49E688E131504040804050
:0C00D000E1F700C00000DBCFF894FFCF88
:00000001FF
