:100000000C9434000C9451000C9451000C94510049
:100010000C9451000C9451000C9451000C9451001C
:100020000C9451000C9451000C9451000C9451000C
:100030000C9451000C9451000C9451000C945100FC
:100040000C9451000C9451000C9451000C945100EC
:100050000C9451000C9451000C9451000C945100DC
:100060000C9451000C94510011241FBECFEFD8E026
:10007000DEBFCDBF11E0A0E0B1E0EAE3F4E002C0F2
:1000800005900D92AE30B107D9F721E0AEE0B1E0B6
:1000900001C01D92A331B207E1F70E94CB010C947D
:1000A0001B020C9400008091C00087FFFCCF809160
:1000B000C60008959091C00095FFFCCF8093C600C4
:1000C00008952091C00027FF06C02091C600FC01C2
:1000D000208381E0089580E008959B01AC0160E8F1
:1000E00074E88EE190E00E94F901215031093093CB
:1000F000C5002093C400E1ECF0E08081886180833A
:10010000E0ECF0E08081826080830895CF93DF93FC
:10011000EC018991882319F00E945A00FACFDF91EF
:10012000CF9108951092B9008CE08093B80084E0DC
:100130008093BC00089584EA8093BC008091BC0049
:1001400087FFFCCF089584E98093BC0008958093D5
:10015000BB0084E88093BC008091BC0087FFFCCF8B
:10016000089584EC8093BC008091BC0087FFFCCF95
:100170008091BB00089584E88093BC008091BC000E
:1001800087FFFCCF8091BB0008958091B900887FE4
:1001900008951F93CF93DF9300D0CDB7DEB7182F0C
:1001A0006A8399830E949B0080EA0E94A70099813C
:1001B000892F0E94A700812F0E94A7006A81862FA5
:1001C0000E94A70084E98093BC0080E00F900F900C
:1001D000DF91CF911F910895EF92FF921F93CF93DC
:1001E000DF931F92CDB7DEB7182F7B0199830E9452
:1001F0009B0080EA0E94A7009981892F0E94A70096
:10020000812F0E94A7000E949B0081EA0E94A70004
:100210000E94BB00F701808384E98093BC0080E0EA
:100220000F90DF91CF911F91FF90EF9008958091F3
:100230001001811106C04D9934C081E080931001F6
:100240000895813021F44D992CC082E005C08230A0
:1002500031F44D9926C083E08093100122C0833091
:1002600001F54D991EC0109210018FE39CE9019792
:10027000F1F700C0000061E080911101909112013E
:100280000E94C9008FE39CE90197F1F700C00000CC
:100290008091110190911201019690931201809327
:1002A000110180E0089580910F01811106C04E99DF
:1002B00034C081E080930F010895813021F44E997C
:1002C0002CC082E005C0823031F44E9926C083E014
:1002D00080930F0122C0833001F54E991EC0109209
:1002E0000F018FE39CE90197F1F700C0000062E085
:1002F00080911101909112010E94C9008FE39CE945
:100300000197F1F700C00000809111019091120156
:100310000196909312018093110180E008958091DD
:100320000E01811106C04F9934C081E080930E0107
:100330000895813021F44F992CC082E005C08230AD
:1003400031F44F9926C083E080930E0122C08330A0
:1003500001F54F991EC010920E018FE39CE90197A1
:10036000F1F700C0000063E080911101909112014B
:100370000E94C9008FE39CE90197F1F700C00000DB
:100380008091110190911201019690931201809336
:10039000110180E00895CF93DF931F92CDB7DEB7B0
:1003A0008AB18F718AB980EE8BB960E072EC81E01E
:1003B00090E00E946D000E94920000E010E0BE01FB
:1003C0006F5F7F4FC8010E94EC0084E091E00E94C3
:1003D00086008981805D0E945A000F5F1F4F0530A3
:1003E000110569F70E9417010E9453010E948F01B5
:1003F000F9CFA1E21A2EAA1BBB1BFD010DC0AA1F3B
:10040000BB1FEE1FFF1FA217B307E407F50720F07D
:10041000A21BB30BE40BF50B661F771F881F991FF8
:100420001A9469F760957095809590959B01AC0141
:0A043000BD01CF010895F894FFCF3D
:0E043A00A100A0000A0D427574746F6E2000C0
:00000001FF
