:100000000C9434000C9449000C9449000C94490061
:100010000C9449000C9449000C9449000C9449003C
:100020000C9449000C9449000C9449000C9449002C
:100030000C9449000C9449000C9449000C9449001C
:100040000C9449000C9449000C9449000C9449000C
:100050000C9449000C9449000C9449000C944900FC
:100060000C9449000C94490011241FBECFEFD8E036
:10007000DEBFCDBF11E0A0E0B1E0E0E5F3E002C0FB
:1000800005900D92AE33B107D9F70E947E000C9413
:10009000A6010C9400008091C00087FFFCCF8091E6
:1000A000C60008959091C00095FFFCCF8093C600D4
:1000B00008959B01AC0160E874E88EE190E00E9435
:1000C0008401215031093093C5002093C400E1EC34
:1000D000F0E0808188618083E0ECF0E080818260E4
:1000E00080830895CF93DF93EC018991882319F0E1
:1000F0000E945200FACFDF91CF9108955F9A60E09D
:1001000072EC81E090E00E945900EE24E394F12C1F
:100110000E944B00D82F0E944B00C82F8F7D825425
:10012000833020F080E091E00E9472000E944B003A
:1001300090E08C0100531109C197079720F081E1ED
:1001400091E00E947200DC3409F47CC030F4D134B8
:1001500009F43FC0D53451F0D2C0D53639F0DC3681
:1001600009F470C0D13609F0CAC033C0C43429F1D3
:100170002CF4C23449F0C33499F0CACFC33681F0AD
:10018000C436D9F0C23621F624B1C70101C0880FA8
:100190000A95EAF7922F982B94B995B1892B34C020
:1001A00027B1C701002E01C0880F0A94EAF7922FE9
:1001B000982B97B998B1892B88B92AB1C70101C08A
:1001C000880F0A95EAF7922F982B9AB99BB1892B41
:1001D00037C0C43449F12CF4C23451F0C334B1F007
:1001E00097CFC33699F0C436F9F0C23609F090CFF4
:1001F00024B1C70101C0880F0A95EAF7922F982B06
:1002000094B995B18095892385B982CF27B1C7016B
:10021000002E01C0880F0A94EAF7922F982B97B905
:1002200098B18095892388B92AB1C70101C0880F88
:100230000A95EAF7922F982B9AB99BB1809589235A
:100240008BB966CFC43409F44AC02CF4C23459F0D7
:10025000C33431F15DCFC33619F1C43609F43FC060
:10026000C23609F055CF24B1C701002E01C0880F56
:100270000A94EAF7982F9095922394B995B1892B17
:1002800085B983B190E002C0959587950A95E2F70C
:1002900080FF03C081E291E034C08AE291E031C086
:1002A00027B1C701002E01C0880F0A94EAF7982FE2
:1002B0009095922397B998B1892B88B986B190E02F
:1002C000002E02C0959587950A94E2F780FF03C03F
:1002D00081E291E002C08AE291E00E9472002AB1BC
:1002E000C701002E01C0880F0A94EAF7982F909555
:1002F00092239AB99BB1892B8BB989B1C3CF80E383
:1003000091E00E94720004CFA1E21A2EAA1BBB1B2F
:10031000FD010DC0AA1FBB1FEE1FFF1FA217B307D1
:10032000E407F50720F0A21BB30BE40BF50B661FE7
:10033000771F881F991F1A9469F7609570958095AB
:1003400090959B01AC01BD01CF010895F894FFCFBA
:10035000696E76616C696420706F727421200A0D79
:1003600000696E76616C69642070696E21200A0DE7
:10037000006F6666656E200A0D007A75200A0D0012
:0E0380007769652062697474653F200A0D007C
:00000001FF
