:100000000C9434000C9451000C9451000C94510049
:100010000C9451000C9451000C9451000C9451001C
:100020000C9451000C9451000C9451000C9451000C
:100030000C9451000C9451000C9451000C945100FC
:100040000C9492000C9451000C9451000C945100AB
:100050000C9451000C9451000C9451000C945100DC
:100060000C9451000C94510011241FBECFEFD8E026
:10007000DEBFCDBF11E0A0E0B1E0EAE9F2E002C0EE
:1000800005900D92A230B107D9F721E0A2E0B1E0CE
:1000900001C01D92A330B207E1F70E94FA000C9450
:1000A0004B010C9400008091C00087FFFCCF809131
:1000B000C60008959091C00095FFFCCF8093C600C4
:1000C00008952091C00027FF06C02091C600FC01C2
:1000D000208381E0089580E008959B01AC0160E8F1
:1000E00074E88EE190E00E9429012150310930939B
:1000F000C5002093C400E1ECF0E08081886180833A
:10010000E0ECF0E08081826080830895CF93DF93FC
:10011000EC018991882319F00E945A00FACFDF91EF
:10012000CF9108951F920F920FB60F9211248F93C3
:100130009F9387EE86BD809102018F5F80930201BD
:1001400090910001981710F02D9A01C02D98809180
:100150000201893010F0109202019F918F910F904F
:100160000FBE0F901F90189583E085BDEEE6F0E07E
:1001700080818160808387EE86BD0895EAE7F0E0A4
:1001800087E0808380818068808380E480937C0026
:10019000089590917C00907F90937C0090917C00DA
:1001A000892B80937C0080917A00806480937A0010
:1001B00080917A0086FDFCCF2091780080917900B3
:1001C00090E0982F8827820F911D0895CF93DF9399
:1001D0009B01FB013496CAE0D0E0BE010E941501EC
:1001E000805D8293CB01E217F307B9F71482DF91A8
:1001F000CF910895CF93DF931F92CDB7DEB760E024
:1002000072EC81E090E00E946D000E94B400259A9B
:1002100078941982CE0101960E9461008823C9F367
:100220008981805380930001F4CFAA1BBB1B51E14D
:1002300007C0AA1FBB1FA617B70710F0A61BB70B56
:10024000881F991F5A95A9F780959095BC01CD01FB
:100250000895A1E21A2EAA1BBB1BFD010DC0AA1F07
:10026000BB1FEE1FFF1FA217B307E407F50720F01F
:10027000A21BB30BE40BF50B661F771F881F991F9A
:100280001A9469F760957095809590959B01AC01E3
:0A029000BD01CF010895F894FFCFDF
:02029A00010061
:00000001FF
